:100000005CC0ECC175C074C073C072C071C070C0F8
:100010006FC06EC06DC06CC06BC06AC069C00403A5
:10002000090418034B0075006E0067004600750058
:1000300020004C00610062007300200353004E005A
:1000400045005300200043006F006E0074007200F2
:100050006F006C006C006500720012011001FF005F
:100060000008040001000001010200010902220051
:100070000101008032090400000103000000092191
:1000800001010001222B000705810308000A050178
:100090000905A1010901A10009300931150026FF58
:1000A00000750895028102C005091901290815008B
:1000B0002501750195088102C00011241FBECFE5FE
:1000C000D1E0DEBFCDBF10E0A0E6B0E0ECE8F8E0A4
:1000D00002C005900D92AE36B107D9F710E0AEE63A
:1000E000B0E001C01D92AE3AB107E1F736D3CCC300
:1000F00087CF1F93162F2091830024FF07C02091E4
:10010000840038E823272093840003C02AE5209345
:100110008300212FDC01E5E8F0E08D9181932150EF
:100120001216DCF385E890E0612F41D11C5F10933B
:1001300083001F9108951F93CF93DF9380919400C4
:10014000835087FDA8C090919100209190002D329E
:1001500009F09FC0883009F09CC0CCE0D0E0C91BFA
:10016000D109C856DF4F83EC809378008AE58093ED
:10017000600010926E008881807619F0CE018CD2DA
:100180007FC09A81109281008981882331F4109276
:10019000820021E830E082E06FC0853019F490934E
:1001A000950067C0863009F04EC08B81813041F4E4
:1001B0008AE590E0909393008093920082E13FC0A3
:1001C000823041F48CE690E090939300809392000B
:1001D00082E235C08330F1F4992341F48EE190E05E
:1001E000909393008093920084E029C0913041F471
:1001F00082E290E0909393008093920088E11FC088
:100200009230E1F48AE390E090939300809392001F
:1002100080E215C0813241F48EE790E09093930024
:100220008093920089E00BC0823241F48EE890E026
:1002300090939300809392008BE201C080E090E461
:1002400090936E001DC0883069F0893019F4909346
:1002500097000FC08A3049F08B3059F48BE48093BB
:10026000840007C027E930E002C021E830E081E0E7
:1002700003C021E830E080E03093930020939200A7
:100280009F81992321F49E81981708F4892F8093E8
:100290006100109294008091600084FF4CC08091B6
:1002A00061008F3F09F447C0182F893008F018E02B
:1002B000811B809361008091780098E88927809362
:1002C0007800112361F18091920090919300309118
:1002D0006E00212F215036FF0EC030E0A901465894
:1002E0005F4FFC01A9E7B0E064916D933196A417CC
:1002F000B507D1F70CC0DC0130E0A90146585F4FCB
:10030000E9E7F0E06D916193E417F507D9F72F5F06
:100310003F4F280F391F309393002093920089E7B5
:1003200090E0612F44D01C5F1C3019F08FEF809358
:1003300061001093600084E196B3957031F48150B0
:10034000D9F71092950010928F0011E0811110E002
:1003500080916F00811729F0112309F4C0D1109307
:100360006F00DF91CF911F91089585B7826085BF9F
:100370008BB780648BBF8BE4809384008AE5809385
:1003800083000895A82FB92F80E090E041E050EA63
:10039000609530E009C02D9182279795879510F0E0
:1003A00084279527305EC8F36F5FA8F30895EADFCE
:1003B0008D939D930895A6E088279927AA9569F0C3
:1003C0000197E1F3B099FCCFB09BFECF81E0992774
:1003D000A6B3019611F0A570D9F70895CF93CFB7C2
:1003E000CF93C395B09BE9F7B09B0BC0B09B09C0FE
:1003F000B09B07C0B09B05C0B09B03C0B09B01C0C1
:10040000D5C00F92DF93C0919100DD27C856DF4F12
:10041000012EB09B03C0DF910F90E6CF2F930F9377
:100420001F934F932FEF4F6F06B300FB20F95F939D
:100430003F9350E03BE065C016B30126502950FDC4
:10044000C89556B3012700FB25F92F7306B3B1F009
:100450005027102710FB26F906B22230F0F000C01A
:1004600016B3012700FB27F90126502906B22430D4
:10047000E8F54F77206816B30000F6CF50274F7D80
:10048000206206B2102F000000C006B300265029DB
:10049000102710FB26F906B2E2CF4F7B06B320648B
:1004A00000C0DACF01265029157006B269F14E7FDF
:1004B0002160012F16B328C0002650294D7F06B2B7
:1004C0002260102F29C0012650294B7F06B22460DC
:1004D000012F2DC016B301265029477F2860000048
:1004E00006B22EC04F7E06B3206130C0422706B34D
:1004F000499300265029102706B24FEF10FB20F930
:10050000297F16B379F2157059F10126502906B2E8
:10051000012700FB21F9237F06B371F20026502941
:100520003150D0F006B2102710FB22F9277E16B307
:1005300051F201265029012700FB06B223F92F7C36
:1005400049F2000006B3102710FB24F900265029B9
:1005500006B22F7939F270CF10E41ABF002719C004
:100560003B503195C31BD04010E41ABF0881033CB7
:1005700009F10B34F9F020918F001981110F12133A
:10058000EDCF4A81441F093651F10D3211F0013E81
:1005900029F7009396003F915F914F911F910F9122
:1005A0002F91DF910F90CAB7C6FD1BCFCF91CFBF60
:1005B000CF91189520919600222369F31091940011
:1005C000112379F534307AF1309394002093900020
:1005D000109191003BE0311B3093910024C00091B9
:1005E00094000130F4F40AE54F7049F43091600052
:1005F00034FD1AC000936000C8E7D0E019C0309104
:10060000830034FD11C000938300C4E8D0E010C023
:10061000052710E000C021C0052710E0C89508BBE1
:1006200014C03AE501C032ED032EC0E0D0E032E064
:1006300017B31560C09A08B317BB55E020E84FEF19
:1006400020FF052708BB279517951C3F28F70000BA
:100650004552B0F720FF0527279508BB17951C3F8B
:10066000B8F629913A9561F70A7F10919500110F1C
:1006700008BBC250D04011F010938F0010E41ABF95
:10068000016017B31A7F402F4A7F54E05A95F1F763
:1006900008BB17BB48BB7FCFFC01808180768032CE
:1006A000D1F48181813041F480E790E09093930010
:1006B0008093920083E00895823041F487E790E0D0
:1006C000909393008093920081E008958A3029F4FA
:1006D00083818093770080E0089580E00895DF9221
:1006E000EF92FF920F931F93CF93DF93C8E0D0E078
:1006F000FF2480E8E82EDF2CDE0CD1BE5CDE8C010E
:1007000089E0043318070CF4FD2CE694219799F73F
:100710008F2D815081BFCF2DD0E0219610C04BDEB0
:100720008453994097FF03C0909581959F4F801700
:10073000910714F4F1B68C0181B78F5F81BF81B747
:1007400090E0C817D9075CF7F1BEDF91CF911F91F8
:100750000F91FF90EF90DF9008952EE088E190E0F8
:100760000FB6F894A89581BD0FBE21BD8AE087BB66
:10077000FCDDB89A80E007C0A895ECE1F0E1319784
:10078000F1F700C000008150B9F7B898789408E0FC
:1007900010E0C1E0D0E0A895CEDCC39AF2E4FA956F
:1007A000F1F7C39880E090E1915021E22A95F1F7AA
:1007B000C198880F26B324FF8F5FE1E2EA95F1F735
:1007C000C19A983019F480937300EECF992361F7A2
:1007D000809374009091830094FFDDCF909173001B
:1007E00020917500921709F046C02091760082177B
:1007F00009F041C0D0CF6FEF21FD60E022FF02C0C1
:10080000AFEF01C0A0E823FDA0E0B82FB295BF7004
:10081000907FB92BE5E6F0E080E090E070E0219178
:10082000332727FD3095A801421B530B9E01042E50
:1008300002C0220F331F0A94E2F72B2330E002C0DC
:10084000359527954A95E2F730E0082E02C0220F31
:10085000331F0A94E2F7722B019688309105F9F65E
:1008600060937000A09371007093720080E790E035
:1008700063E03FDC90CF9093750080937600292F42
:0C08800090FDB9CF60E8B8CFF894FFCF2E
:0E088C005AFF080210060501020708030400C7
:00000001FF
