:100000005CC0E6C175C074C073C072C071C070C0FE
:100010006FC06EC06DC06CC06BC06AC069C00902A1
:1000200022000101008032090400000103000000E9
:10003000092101010001222B000705810308000AA4
:1000400012011001FF00000804000100000101027C
:100050000001200353004E004500530020004300E0
:100060006F006E00740072006F006C006C00650021
:10007000720018034B0075006E00670046007500A3
:1000800020004C00610062007300040309040501B4
:100090000905A1010901A10009300931150026FF58
:1000A00000750895028102C005091901290815008B
:1000B0002501750195088102C00011241FBECFE5FE
:1000C000D1E0DEBFCDBF10E0A0E6B0E0E8E6F8E0AA
:1000D00002C005900D92AE36B107D9F710E0AEE63A
:1000E000B0E001C01D92AE3AB107E1F72AD3BAC31E
:1000F00087CFCF93C62F2091830024FF07C0209184
:10010000840038E823272093840003C02AE5209345
:100110008300DC01E5E8F0E09C2F9E0F8D91819338
:10012000892F8E1B1816D4F36C2F85E890E039D1F7
:10013000CC5FC0938300CF910895CF93DF938091DC
:100140009400835087FDA8C0909191002091900069
:100150002D3209F09FC0883009F09CC0CCE0D0E07F
:10016000C91BD109C856DF4F83EC809378008AE51C
:100170008093600010926E008881807619F0CE0125
:1001800085D27FC09A81109281008981811106C039
:100190001092820021E830E082E06FC0853019F4CF
:1001A0009093950067C0863009F04EC08B818130F6
:1001B00041F480E490E0909393008093920082E178
:1001C0003FC0823041F48EE190E0909393008093A1
:1001D000920082E235C08330F1F4911108C08AE8C0
:1001E00090E0909393008093920084E029C0913036
:1001F00041F482E790E0909393008093920088E12D
:100200001FC09230E1F482E590E0909393008093D8
:10021000920080E215C0813241F480E390E0909337
:1002200093008093920089E00BC0823241F48EE803
:1002300090E090939300809392008BE201C080E065
:1002400090E490936E001DC0883069F0893019F4F5
:10025000909397000FC08A3049F08B3059F48BE4AB
:100260008093840007C027E930E002C021E830E035
:1002700081E003C021E830E080E0309393002093D8
:1002800092009F81911104C09E81981708F4892FD4
:1002900080936100109294008091600084FF46C0BA
:1002A000809161008F3F09F441C0C82F893008F068
:1002B000C8E08C1B809361008091780098E88927C2
:1002C00080937800CC2331F12091920030919300FB
:1002D00080916E0086FF0BC0F901A9E7B0E08C2F7A
:1002E0008A0F94919D9331968A13FBCF09C0D9014F
:1002F000E9E7F0E08C2F8E0F9D9191938E13FCCF48
:100300008C2F815090E00196820F931F9093930061
:10031000809392006C2F89E790E043D0CC5FCC3083
:1003200019F08FEF80936100C093600084E196B371
:10033000957031F48150D9F71092950010928F008A
:10034000C1E08111C0E080916F008C1729F0C111CC
:1003500001C0BDD1C0936F00DF91CF91089585B7E3
:10036000826085BF8BB780648BBF8BE480938400F1
:100370008AE5809383000895A82FB92F80E090E04C
:1003800041E050EA609530E009C02D9182279795B1
:10039000879510F084279527305EC8F36F5FA8F328
:1003A0000895EADF8D939D930895A6E08827992705
:1003B000AA9569F00197E1F3B099FCCFB09BFECF0D
:1003C00081E09927A6B3019611F0A570D9F7089599
:1003D000CF93CFB7CF93C395B09BE9F7B09B0BC03A
:1003E000B09B09C0B09B07C0B09B05C0B09B03C0C9
:1003F000B09B01C0D5C00F92DF93C0919100DD2763
:10040000C856DF4F012EB09B03C0DF910F90E6CF9F
:100410002F930F931F934F932FEF4F6F06B300FB54
:1004200020F95F933F9350E03BE065C016B301268F
:10043000502950FDC89556B3012700FB25F92F73AD
:1004400006B3B1F05027102710FB26F906B2223070
:10045000F0F000C016B3012700FB27F90126502950
:1004600006B22430E8F54F77206816B30000F6CFC7
:1004700050274F7D206206B2102F000000C006B347
:1004800000265029102710FB26F906B2E2CF4F7B39
:1004900006B3206400C0DACF01265029157006B2D9
:1004A00069F14E7F2160012F16B328C00026502924
:1004B0004D7F06B22260102F29C0012650294B7FA4
:1004C00006B22460012F2DC016B301265029477FA4
:1004D0002860000006B22EC04F7E06B3206130C0F7
:1004E000422706B3499300265029102706B24FEF42
:1004F00010FB20F9297F16B379F2157059F1012606
:10050000502906B2012700FB21F9237F06B371F2BF
:10051000002650293150D0F006B2102710FB22F9E6
:10052000277E16B351F201265029012700FB06B29F
:1005300023F92F7C49F2000006B3102710FB24F9A1
:100540000026502906B22F7939F270CF10E41ABF75
:10055000002719C03B503195C31BD04010E41ABF8F
:100560000881033C09F10B34F9F020918F001981C7
:10057000110F1213EDCF4A81441F093651F10D328C
:1005800011F0013E29F7009396003F915F914F9142
:100590001F910F912F91DF910F90CAB7C6FD1BCF0E
:1005A000CF91CFBFCF91189520919600222369F368
:1005B00010919400112379F534307AF1309394003E
:1005C00020939000109191003BE0311B30939100FB
:1005D00024C0009194000130F4F40AE54F7049F40E
:1005E0003091600034FD1AC000936000C8E7D0E08D
:1005F00019C03091830034FD11C000938300C4E81A
:10060000D0E010C0052710E000C021C0052710E091
:10061000C89508BB14C03AE501C032ED032EC0E016
:10062000D0E032E017B31560C09A08B317BB55E0AD
:1006300020E84FEF20FF052708BB279517951C3FA3
:1006400028F700004552B0F720FF0527279508BB83
:1006500017951C3FB8F629913A9561F70A7F1091DA
:100660009500110F08BBC250D04011F010938F00BD
:1006700010E41ABF016017B31A7F402F4A7F54E07D
:100680005A95F1F708BB17BB48BB7FCFFC018081AF
:1006900080768032D1F48181813041F480E790E02E
:1006A000909393008093920083E00895823041F408
:1006B00083E790E0909393008093920081E0089507
:1006C0008A3019F483818093730080E00895FF924B
:1006D0000F931F93CF93DF93C8E0D0E0F12C10E885
:1006E0000F2D010F01BF61DE9C01243389E0380723
:1006F0000CF4F02E1695219799F78F2D815081BF1C
:100700008901CF2DD0E0219610C04FDE845399404F
:1007100097FF03C09195819591098017910714F473
:10072000F1B68C0181B78F5F81BF81B790E0C817A8
:10073000D9075CF7F1BEDF91CF911F910F91FF9028
:1007400008952EE088E190E00FB6F894A89581BD59
:100750000FBE21BD8AE087BB02DEB89A80E007C0E9
:10076000A895ECE1F0E13197F1F700C0000081506D
:10077000B9F7B8987894C8E0D0E001E010E0A89507
:10078000DCDCC39AF2E4FA95F1F7C39880E090E1DB
:10079000915021E22A95F1F7C198880FB49B8F5FA1
:1007A000E1E2EA95F1F7C19A983019F48093740068
:1007B000EFCF9111EDCF809375009091830094FF5E
:1007C000DECF9091740020917600921343C0209167
:1007D000770082133FC0D3CF6FEF91FD60E092FFAF
:1007E00002C0AFEF01C0A0E893FDA0E0B82FB29522
:1007F000BF70907FB92BE2E6F0E020E030E070E0DF
:100800008191AE01481B510987FD5395C801042E03
:1008100001C0880F0A94EAF78B2390E002C09595F7
:1008200087954A95E2F79927022E01C0880F0A940E
:10083000EAF7782B2F5F3F4F2830310509F7609397
:100840007000A09371007093720063E080E790E005
:1008500050DC95CF909376008093770090FDBCCFCD
:0808600060E8BBCFF894FFCF64
:0E0868005AFF060501020708030410020800EB
:00000001FF
